{
    "_format": "hh-sol-artifact-1",
    "contractName": "DailyLogin",
    "sourceName": "contracts/DailyLogin.sol",
    "abi": [
        {
            "anonymous": false,
            "inputs": [
                {
                    "indexed": true,
                    "internalType": "address",
                    "name": "user",
                    "type": "address"
                },
                {
                    "indexed": false,
                    "internalType": "uint256",
                    "name": "timestamp",
                    "type": "uint256"
                }
            ],
            "name": "Login",
            "type": "event"
        },
        {
            "inputs": [],
            "name": "dailyLogin",
            "outputs": [],
            "stateMutability": "nonpayable",
            "type": "function"
        },
        {
            "inputs": [
                {
                    "internalType": "address",
                    "name": "",
                    "type": "address"
                }
            ],
            "name": "lastLoginTs",
            "outputs": [
                {
                    "internalType": "uint256",
                    "name": "",
                    "type": "uint256"
                }
            ],
            "stateMutability": "view",
            "type": "function"
        }
    ],
    "bytecode": "0x6080604052348015600f57600080fd5b506103898061001f6000396000f3fe608060405234801561001057600080fd5b50600436106100365760003560e01c80638c8f8a001461003b578063ebb5993a14610045575b600080fd5b610043610075565b005b61005f600480360381019061005a9190610212565b610197565b60405161006c9190610258565b60405180910390f35b620151806000803373ffffffffffffffffffffffffffffffffffffffff1673ffffffffffffffffffffffffffffffffffffffff16815260200190815260200160002054426100c391906102a2565b1015610104576040517f08c379a00000000000000000000000000000000000000000000000000000000081526004016100fb90610333565b60405180910390fd5b426000803373ffffffffffffffffffffffffffffffffffffffff1673ffffffffffffffffffffffffffffffffffffffff168152602001908152602001600020819055503373ffffffffffffffffffffffffffffffffffffffff167f0befd9270187ed55bae2f19d1528e49f0a51f7275608a4ac436db36374d53f8e4260405161018d9190610258565b60405180910390a2565b60006020528060005260406000206000915090505481565b600080fd5b600073ffffffffffffffffffffffffffffffffffffffff82169050919050565b60006101df826101b4565b9050919050565b6101ef816101d4565b81146101fa57600080fd5b50565b60008135905061020c816101e6565b92915050565b600060208284031215610228576102276101af565b5b6000610236848285016101fd565b91505092915050565b6000819050919050565b6102528161023f565b82525050565b600060208201905061026d6000830184610249565b92915050565b7f4e487b7100000000000000000000000000000000000000000000000000000000600052601160045260246000fd5b60006102ad8261023f565b91506102b88361023f565b92508282039050818111156102d0576102cf610273565b5b92915050565b600082825260208201905092915050565b7f416c7265616479206c6f6767656420696e20746f646179000000000000000000600082015250565b600061031d6017836102d6565b9150610328826102e7565b602082019050919050565b6000602082019050818103600083015261034c81610310565b905091905056fea2646970667358221220e79c67b52251a6c60490f06f8d766932cc90e7d1eafcd6e50762393b8149eb4864736f6c634300081c0033",
    "linkReferences": {},
    "deployedLinkReferences": {}
}